:100000000C9463000C944B0B0C94240B0C948B00FD
:100010000C948B000C948B000C948B000C948B0034
:100020000C948B000C948B000C948B000C948B0024
:100030000C948B000C948B000C948B000C948B0014
:100040000C94DA0A0C948B000C948B000C948B00AB
:100050000C948B000C948B000C948B000C948B00F4
:100060000C948B000C948B000000000024002700EF
:100070002A0000000000250028002B0000000000DE
:1000800023002600290004040404040404040202DA
:100090000202020203030303030301020408102007
:1000A0004080010204081020010204081020000012
:1000B0000008000201000003040700000000000027
:1000C0000000AF0D5F0E11241FBECFEFD8E0DEBFE2
:1000D000CDBF22E0AEE3B2E001C01D92AB3BB20760
:1000E000E1F712E0A0E0B1E0ECE4F2E202C005903A
:1000F0000D92AE33B107D9F710E0C2E6D0E004C0EC
:100100002197FE010E940D0FC136D107C9F70E9449
:10011000720B0C9419110C940000AF92BF92CF9205
:10012000DF92EF92FF920F931F93CF93DF936C01B7
:100130007B018B01040F151FEB015E01AE18BF0898
:10014000C017D10759F06991D601ED91FC9101904A
:10015000F081E02DC6010995892B79F7C501DF9162
:10016000CF911F910F91FF90EF90DF90CF90BF90B4
:10017000AF900895833081F028F4813099F0823077
:10018000A9F008958730A9F08830C9F08430B1F41F
:10019000809180008F7D03C0809180008F77809355
:1001A0008000089584B58F7784BD089584B58F7DD0
:1001B000FBCF8091B0008F778093B000089580913D
:1001C000B0008F7DF9CF1F93CF93DF93282F30E0BE
:1001D000F901E255FF4F8491F901E656FF4FD491A2
:1001E000F901EA57FF4FC491CC23A9F0162F8111D2
:1001F0000E94BA00EC2FF0E0EE0FFF1FEE58FF4F09
:10020000A591B4918FB7F894EC91111108C0D095D5
:10021000DE23DC938FBFDF91CF911F910895DE2BFA
:10022000F8CFCF93DF9390E0FC01E656FF4F249187
:100230008A579F4FFC0184918823D1F090E0880F6A
:10024000991FFC01E859FF4FA591B491FC01EE58AC
:10025000FF4FC591D491623071F49FB7F8943C91EF
:10026000822F809583238C93E8812E2B28839FBF38
:10027000DF91CF9108958FB7F894EC912E2B2C93AA
:100280008FBFF6CF1F93CF93DF93182FEB0161E061
:100290000E941101209739F460E0812FDF91CF9106
:1002A0001F910C94E300CF3FD10511F461E0F5CF2D
:1002B000E12FF0E0E255FF4FE491E33031F140F4FB
:1002C000E130B1F0E230E1F0C038D1057CF7E4CFA5
:1002D000E73029F1E83059F1E430B1F7809180003E
:1002E000806280938000D0938B00C0938A0004C00A
:1002F00084B5806884BDC7BDDF91CF911F910895FB
:1003000084B5806284BDC8BDF7CF809180008068CD
:1003100080938000D0938900C0938800EDCF8091B6
:10032000B00080688093B000C093B300E5CF8091A7
:10033000B00080628093B000C093B400DDCF8E50D7
:10034000806480937C0080917A00806480937A003E
:1003500080917A0086FDFCCF8091780090917900A1
:1003600008952FB7F8946091870270918802809168
:10037000890290918A022FBF0895CF93DF93C6E937
:10038000D2E09C838B830E94B1016D837E838F8337
:100390009887CE01DF91CF9108950895089590E058
:1003A00080E00895089508950895089508950895A2
:1003B000809197029091980222E08A36920721F468
:1003C0008CE492E00C94BD018456924039F4809103
:1003D0004B028111F5CF8AE692E0F4CF0895CF93D6
:1003E000DF93EB01E0910501F09106019C01E29F92
:1003F000C001E39F900DF29F900D112424E630E0A0
:10040000B9010E94D70E7093900260938F02EC9F07
:10041000C001ED9F900DFC9F900D1124B9010E9429
:10042000D70E7093920260939102DF91CF9108955D
:100430000F931F93CF93DF93EC01888199810097ED
:1004400059F02A813B812617370730F081E0DF9190
:10045000CF911F910F9108958B016F5F7F4F0E9485
:100460004C10009759F0998388831B830A832C8151
:100470003D81232B59F7FC011082E8CF80E0E7CFC4
:10048000EF92FF920F931F93CF93DF936115710546
:1004900041F480E0DF91CF911F910F91FF90EF9099
:1004A000089541155105B1F07B01EC010C811D81CE
:1004B000040F151FB8010E941802882351F32881E8
:1004C00039818C819D81B701820F931F0E94121187
:1004D0001D830C8381E0DECFFB0101900020E9F752
:1004E0003197AF01461B570B0C944002CF93DF931B
:1004F000EC0188819981009711F00E94C30F198245
:1005000018821D821C821B821A82DF91CF9108956E
:10051000CF93DF93EC01FB0101900020E9F73197C5
:10052000AF01461B570B0E944002811103C0CE0150
:100530000E947602CE01DF91CF910895CF93DF9391
:10054000EC01FB0144815581608171810E94400270
:10055000811103C0CE010E947602CE01DF91CF91BE
:100560000895EF92FF920F931F93CF93DF93EC01C7
:100570007B018A01BA010E94180281110BC0CE01D1
:100580000E947602CE01DF91CF911F910F91FF90D3
:10059000EF9008951D830C83B701888199810E9493
:1005A0001211F0CFFB0101900020E9F73197AF0164
:1005B000461B570B0C94B1020F931F93CF93DF93FD
:1005C000CDB7DEB762970FB6F894DEBF0FBECDBFD2
:1005D0008C01CB01F80111821082138212821582E4
:1005E00014824AE0BE016F5F7F4F0E946B0EBE0116
:1005F0006F5F7F4FC8010E94D20262960FB6F894D7
:10060000DEBF0FBECDBFDF91CF911F910F91089537
:10061000CF93DF9300D0CDB7DEB7FC0111821082FB
:1006200013821282158214822FEF29831A82BE014F
:100630006F5F7F4F0E94D2020F900F90DF91CF919A
:100640000895CF93DF93EC01FB018617970749F0DC
:10065000608171816115710541F0448155810E946D
:10066000B102CE01DF91CF9108950E947602F9CFB9
:10067000FC011182108213821282158214820C9462
:100680002103FF920F931F93CF93DF938C01EB0114
:10069000FC01F480FFE0FF153CF065EF71E0C8015C
:1006A0000E946C02F394F6CFFC808FE08F153CF033
:1006B00065EF71E0CE010E946C02F394F6CFB801B1
:1006C0008CE792E00E942103BE0186E792E00E943F
:1006D000210381E080930001DF91CF911F910F9161
:1006E000FF900895FC0111821082138212821582FC
:1006F0001482FB0101900020E9F73197AF01461BFE
:10070000570B0C94B102FC01808191810C94C30FB2
:10071000CF92DF92FF920F931F93CF93DF9300D07E
:1007200000D000D0CDB7DEB78C016A010E9438033B
:10073000F801F480F3E0FF15A4F0B601CE010196B4
:100740000E943803B801CE0101960E949E02BC01AE
:10075000C8010E942103CE0101960E948303F394F5
:10076000E9CFC80126960FB6F894DEBF0FBECDBF05
:10077000DF91CF911F910F91FF90DF90CF9008955F
:10078000CF93DF93CDB7DEB7A4970FB6F894DEBF53
:100790000FBECDBFE0914A02E730A8F50E2E000C47
:1007A000FF0BEB52FC4F0C940D0FDC030C045A04AE
:1007B0005D047E048104A2040E94B10124EF31E0B3
:1007C00040E050E00E94EB0E63E271E020FF02C0C7
:1007D00065E471E0CE0107960E94720364E371E064
:1007E000CE0101960E947203BE01695F7F4FCE0168
:1007F00001960E944103CE0101960E948303CE011F
:1008000007960E948303A4960FB6F894DEBF0FBE2E
:10081000CDBFDF91CF91089566E571E0CE014F968F
:100820000E9472036CE571E0CE010D960E94720386
:100830008EE00E949F01BC01CE0107960E94DC025F
:10084000AE01435F5F4FBE01695F7F4FCE014396AC
:100850000E9488036EE571E0CE0101960E9472034A
:10086000BE016D5E7F4FCE0101960E949E02BC01CB
:10087000CE0149960E943803BE01615E7F4FCE01D2
:1008800049960E944103CE0149960E948303CE01FE
:1008900001960E948303CE0143960E948303CE01FA
:1008A00007960E948303CE010D960E948303CE011A
:1008B0004F96A7CF6BE671E0B1CF66E571E0CE0150
:1008C0004F960E9472036CE571E0CE010D960E9476
:1008D00072038FE00E949F01BC01CE0107960E9427
:1008E000DC02AE01435F5F4FBE01695F7F4FCE0107
:1008F00043960E94880361E771E0AECF6BE671E03A
:10090000DECF66E571E0CE014F960E9472036CE582
:1009100071E0CE010D960E94720380E10E949F015A
:10092000BC01CE0107960E94DC02AE01435F5F4F1F
:10093000BE01695F7F4FCE0143960E94880360E845
:1009400071E08ACF6BE671E0DECF0F931F93CF93F8
:10095000DF93CDB7DEB768970FB6F894DEBF0FBE52
:10096000CDBF80914B02811132C00E94B10124EFB2
:1009700031E040E050E00E94EB0E6EE871E020FFB5
:1009800002C060EB71E0CE0107960E9472036FE92E
:1009900071E0CE0101960E947203BE01695F7F4F34
:1009A000CE0101960E944103CE0101960E9483036D
:1009B000CE0107960E94830368960FB6F894DEBFB7
:1009C0000FBECDBFDF91CF911F910F9108950E946F
:1009D000B101009105011091060124EF31E040E0E2
:1009E00050E00E94EB0E61EC71E020FF02C06CED64
:1009F00071E0CE0143960E947203B801CE010796C2
:100A00000E94DC0262ED71E0CE0101960E94720349
:100A1000BE01695F7F4FCE0101960E949E026AED82
:100A200071E00E948802BC01CE010D960E9438033D
:100A3000BE016D5E7F4FCE010D960E944103CE0137
:100A40000D960E948303CE0101960E948303CE017E
:100A500007960E948303CE014396ACCF0F931F935A
:100A6000CF93DF93CDB7DEB7C056D1090FB6F89458
:100A7000DEBF0FBECDBF8EE00E949F01BC01CE0144
:100A8000875B9F4F0E94DC028FE00E949F01BC01A8
:100A9000CE01815B9F4F0E94DC0280E10E949F019A
:100AA000BC01CE018B5A9F4F0E94DC0260E772E0CE
:100AB000CE01855A9F4F0E943803A1960EAD1FADFF
:100AC000A1970A30110554F465EF71E0CE01855A03
:100AD0009F4F0E946C020F5F1F4FF3CF6DEE71E0CE
:100AE000CE01855A9F4F0E946C028EE00E949F01AA
:100AF0002091090130910A01281739070CF032C101
:100B0000CE0101960E940803BE016F5F7F4FCE01A8
:100B100007960E94380365EF71E0CE0107960E94A8
:100B20008802FC014481558160817181CE01855A22
:100B30009F4F0E944002CE0107960E948303CE0180
:100B400001960E9483038FE00E949F0120910B0178
:100B500030910C01281739070CF00CC1CE01019619
:100B60000E940803BE016F5F7F4FCE0107960E946F
:100B7000380365EF71E0CE0107960E948802FC0100
:100B80004481558160817181CE01855A9F4F0E94B9
:100B90004002CE0107960E948303CE0101960E9477
:100BA000830380E10E949F01209107013091080199
:100BB000281739070CF0E6C0CE0101960E94080301
:100BC0004D815E8169817A81CE01855A9F4F0E9455
:100BD0004002CE0101960E948303BE01655A7F4FF9
:100BE000CE018D5B9F4F0E9438036CE571E0CE0112
:100BF000C1960E947203BE016B5A7F4FCE018B9645
:100C00000E943803AE014F5C5F4FBE01655D7F4FB0
:100C1000CE01C7960E9488036CE571E0CE014F9625
:100C20000E947203BE01615B7F4FCE0149960E9414
:100C30003803AE01415E5F4FBE01675E7F4FCE015C
:100C400085960E9488036CE571E0CE0107960E94AC
:100C50007203BE01675B7F4FCE0101960E9438038D
:100C6000AE01495F5F4FBE016F5F7F4FCE010D96B2
:100C70000E948803BE01635F7F4FCE0143960E94AE
:100C8000380364EF71E0CE0143960E948802BE01F2
:100C90006B5D7F4F0E949E0264EF71E00E948802AC
:100CA000BE01695C7F4F0E949E02BC01CE01CD96C1
:100CB0000E943803BE016D5B7F4FCE01CD960E942E
:100CC0004103CE01CD960E948303CE0143960E943C
:100CD0008303CE010D960E948303CE0101960E94EC
:100CE0008303CE0107960E948303CE0185960E945E
:100CF0008303CE0149960E948303CE014F960E9442
:100D00008303CE01C7960E948303CE018B960E9477
:100D10008303CE01C1960E948303CE018D5B9F4F5A
:100D20000E948303CE01855A9F4F0E948303CE0108
:100D30008B5A9F4F0E948303CE01815B9F4F0E947D
:100D40008303CE01875B9F4F0E948303C05ADF4F0E
:100D50000FB6F894DEBF0FBECDBFDF91CF911F91CC
:100D60000F9108956FEE71E0CE01855A9F4F0E945A
:100D70006C02E9CE6FEE71E0CE01855A9F4F0E9462
:100D80006C020FCF62EF71E0CE01855A9F4F0E9437
:100D90006C0223CFEF92FF920F931F93CF938FE0BC
:100DA0000E949F0120910B0130910C0128173907F7
:100DB000B4F18EE00E949F01E0900901F0900A01D9
:100DC000C1E0E816F9060CF0C0E080E10E949F0146
:100DD00000910701109108010817190724F088E510
:100DE00092E0C11112C08EE00E949F01C1E0E8169E
:100DF000F9060CF4C0E080E10E949F010817190772
:100E00005CF4CC2349F082E592E0CF911F910F91E1
:100E1000FF90EF900C94BD018CE492E0F6CFCF915F
:100E20001F910F91FF90EF900C942E058EE00E9481
:100E30009F012091090130910A012817390714F404
:100E40000C942E058FE00E949F0120910B013091A0
:100E50000C012817390724F48EE592E00C94BD01AB
:100E60008CE492E0FBCF80E10E949F01209107017A
:100E7000309108012817390714F40C942E058FE0DF
:100E80000E949F0120910B0130910C012817390716
:100E900024F48EE592E00C94BD018CE492E0FBCF4B
:100EA000EF92FF920F931F93CF938FE00E949F01C9
:100EB00020910B0130910C01281739074CF48EE575
:100EC00092E0CF911F910F91FF90EF900C94BD0194
:100ED0008EE00E949F01E0900901F0900A01C1E0BC
:100EE000E816F9060CF0C0E080E10E949F01009135
:100EF000070110910801081719072CF0CC2319F0ED
:100F000088E592E0DECF8EE00E949F01C1E0E81606
:100F1000F9060CF4C0E080E10E949F010817190750
:100F200024F482E592E0C111CCCFCF911F910F91B3
:100F3000FF90EF900C942E05CF93DF93EC0160E0CF
:100F40008E810E94E30061E08E810E94E30060E0F8
:100F50008E810E94E3008BE891E00197F1F7DF9129
:100F6000CF910895CF92DF92EF92FF920F931F934C
:100F7000CF93DF936C017C0187E0E80EF11CD0E099
:100F8000C0E0062F10E0B8010C2E02C075956795E1
:100F90000A94E2F76170F70181917F010E94E300FA
:100FA0002196C430D10579F7C601DF91CF911F9109
:100FB0000F91FF90EF90DF90CF900C949C07CF9211
:100FC000DF92EF92FF920F931F93CF93DF93EC0189
:100FD000F62E642F8C810E94E3008D818F3F19F0E3
:100FE00060E00E94E3000F2D10E08F8584FF25C094
:100FF0006E0187E0C80ED11CF12CE12CB8010E2C3B
:1010000002C0759567950A94E2F76170F6018191C7
:101010006F010E94E300FFEFEF1AFF0A88E0E81675
:10102000F10461F7CE01DF91CF911F910F91FF90F5
:10103000EF90DF90CF900C949C07B80184E07595F9
:1010400067958A95E1F7CE010E94B2076F2DCE0118
:10105000DF91CF911F910F91FF90EF90DF90CF9094
:101060000C94B20740E0682F8FE992E00C94DF0700
:10107000CF93DF93823029F49091AE0298609093E1
:10108000AE028093B2021092B30280E48093B40265
:1010900080E18093B50280E58093B60261E08091A3
:1010A000A3020E9411018091A4028F3F19F061E018
:1010B0000E94110161E08091A5020E941101CFE917
:1010C000D2E09E012F5932408091AE0284FD0BC0C8
:1010D00084E090E021962817390744F461E08E817E
:1010E0000E941101EECF88E090E0F4CF8BE39DE009
:1010F0000197F1F760E08091A3020E94E30060E0B5
:101100008091A5020E94E3008091A4028F3F19F014
:1011100060E00E94E3008091AE0284FD39C063E08C
:101120008FE992E00E94B207CBE4D6E4CE010197AA
:10113000F1F763E08FE992E00E94B2072197F1F79F
:1011400063E08FE992E00E94B20783E592E00197A5
:10115000F1F762E08FE992E00E94B2078091AE025F
:1011600080620E94320884E08093AF028CE00E948B
:10117000320881E00E9432088BE39FE10197F1F78A
:1011800082E08093B00286E0DF91CF910C94320828
:1011900080620E9432088BE496E40197F1F7809117
:1011A000AE0280620E94320883E592E00197F1F777
:1011B0008091AE0280620E943208D0CFCF92DF923F
:1011C000EF92FF920F931F9380919302882359F11E
:1011D0000E94B1012091420230914302AB01BC0157
:1011E000421B530B61097109809194029091950201
:1011F000B0E0A0E0481759076A077B0768F081E074
:101200008093000110929302109295021092940222
:1012100010924302109242021F910F91FF90EF90A3
:10122000DF90CF900895809100018823A9F30E9458
:10123000B10100913E0210913F0220914002309195
:1012400041026B017C01C01AD10AE20AF30A97013C
:1012500086010530110521053105C8F160933E0274
:1012600070933F028093400290934102E1E08091AD
:10127000B2028111E0E0E195F0E0E156FD4F848992
:1012800080680E94320840918002509181026091F2
:101290007C0270917D028FE992E00E948D00E091C6
:1012A000B202E23038F5E150F0E0E156FD4F8489BA
:1012B00080680E94320840917A0250917B026091CE
:1012C0007602709177028FE992E00E948D00109271
:1012D00000018091940290919502892B09F49CCF92
:1012E0000E94B101709343026093420281E08093B7
:1012F000930292CFE1E0D8CF0F931F93CF93DF9368
:10130000CDB7DEB72C970FB6F894DEBF0FBECDBFBA
:101310008C01CE0101960E943803B801CE010796D8
:101320000E943803BE016F5F7F4FCE0107960E9477
:101330004103CE0107960E948303CE0101960E94CD
:10134000830380ED97E0909395028093940210922E
:1013500093020E94DE082C960FB6F894DEBF0FBEF3
:10136000CDBFDF91CF911F910F910895CF93DF9360
:10137000CDB7DEB72C970FB6F894DEBF0FBECDBF4A
:10138000809197029091980222E08A36920709F0A4
:1013900079C080914A0291E0980F90934A0283307D
:1013A00009F48BC07CF4813009F477C0823009F4F1
:1013B0007CC02C960FB6F894DEBF0FBECDBFDF9178
:1013C000CF910895853009F488C00CF47EC0863032
:1013D00081F780E10E949F012091480230914902EB
:1013E0004091030150910401240F351F37FF02C0C3
:1013F0002F5F3F4F3595279530930A0120930901C0
:101400002091460230914702409101015091020122
:10141000240F351F37FF02C02F5F3F4F35952795AB
:1014200030930C0120930B0120914402309145022E
:10143000820F931F97FD01969595879590930801CC
:101440008093070167EF71E0CE0107960E94720357
:1014500061E072E0CE0101960E947203BE01695FF5
:101460007F4FCE0101960E947C09CE0101960E9419
:101470008303CE0107960E9483038CE492E00E94CE
:10148000BD0197CF8456924081F580914B02811126
:101490002FC081E080934B028CCF8EE00E949F0191
:1014A000909349028093480284CF8EE00E949F016E
:1014B00090930401809303017CCF8FE00E949F01F1
:1014C000909347028093460274CF8FE00E949F0161
:1014D00090930201809301016CCF80E10E949F01F3
:1014E000909345028093440264CF84E692E0C7CF94
:1014F00080910501909106018436910534F405969A
:10150000909306018093050154CF82E390E0F8CFD9
:1015100041E00E94DF0781E090E008956DE072E015
:1015200080E792E00E94D2026FEF70E08FE390E0DC
:101530000C94EF0162E172E080E792E00E94D20237
:101540006FEF70E08FEF90E00C94EF0167E172E0D5
:1015500080E792E00E94D2026FE370E08FEF90E0AC
:101560000C94EF016DE172E080E792E00E94D202FC
:101570006FEF70E08FEF90E00C94EF0165E272E0A6
:1015800080E792E00E94D20210924B0270E060E08D
:1015900090E080E00C94EF0165E272E080E792E079
:1015A0000E94D20210924A0270E060E090E080E077
:1015B0000C94EF011F920F920FB60F9211242F93EC
:1015C0003F938F939F93AF93BF93809187029091A6
:1015D0008802A0918902B0918A023091860223E0AC
:1015E000230F2D3758F50196A11DB11D20938602BA
:1015F0008093870290938802A0938902B0938A0215
:101600008091820290918302A0918402B091850220
:101610000196A11DB11D8093820290938302A09335
:101620008402B0938502BF91AF919F918F913F91BA
:101630002F910F900FBE0F901F90189526E8230F43
:101640000296A11DB11DD2CF1F920F920FB60F921D
:1016500011242F933F934F935F936F937F938F93B7
:101660009F93AF93BF93EF93FF93E0910F01F0919E
:1016700010010995FF91EF91BF91AF919F918F91CB
:101680007F916F915F914F913F912F910F900FBE7E
:101690000F901F9018951F920F920FB60F92112462
:1016A0002F933F934F935F936F937F938F939F936A
:1016B000AF93BF93EF93FF93E0910D01F0910E0173
:1016C0000995FF91EF91BF91AF919F918F917F917C
:1016D0006F915F914F913F912F910F900FBE0F909F
:1016E0001F901895CF93DF93CDB7DEB7C857D109B8
:1016F0000FB6F894DEBF0FBECDBF789484B582607C
:1017000084BD84B5816084BD85B5826085BD85B5A5
:10171000816085BD80916E00816080936E00109223
:10172000810080918100826080938100809181009E
:10173000816080938100809180008160809380002F
:101740008091B10084608093B1008091B00081608D
:101750008093B00080917A00846080937A008091B9
:101760007A00826080937A0080917A008160809311
:101770007A0080917A00806880937A001092C1008C
:1017800061E08DE00E94110161E08AE00E94110198
:1017900061E089E00E94110162E082E00E94110193
:1017A00062E083E00E94110186EB99E090930E01C4
:1017B00080930D01809169008C7F82608093690025
:1017C000E89A88ED91E09093100180930F01809149
:1017D0006900837F886080936900E99A82E00E94B3
:1017E0003808CE0107960E940803CE010D960E948C
:1017F0000803CE0143960E940803CE0149960E9439
:101800000803CE014F960E940803CE0185960E94E0
:101810000803CE018B960E940803CE01C1960E9458
:101820000803CE01C7960E940803CE01CD960E9400
:101830000803CE01875B9F4F0E940803BE01675BD0
:101840007F4FCE018D5B9F4F0E943803BE01635CCA
:101850007F4FCE018D5B9F4F0E949E02BE01695C4F
:101860007F4F0E949E02BE016F5C7F4F0E949E02CE
:10187000BE01655D7F4F0E949E026BE272E00E9496
:101880008802BE016B5D7F4F0E949E02BE01615EB9
:101890007F4F0E949E02BE01675E7F4F0E949E02A4
:1018A000BE016D5E7F4F0E949E02BE01635F7F4F4F
:1018B0000E949E02BE01695F7F4F0E949E02BC0192
:1018C000CE0101960E943803CE018B5A9F4F0E9491
:1018D0000803CE01855A9F4F0E940803CE018F59FD
:1018E0009F4F0E940803CE0189599F4F0E94080311
:1018F000CE018D589F4F0E940803BE016D587F4F47
:10190000CE0183599F4F0E943803BE0169597F4F12
:10191000CE0183599F4F0E949E0261E372E00E94B4
:101920008802BE016F597F4F0E949E02BE01655A18
:101930007F4F0E949E02BE016B5A7F4F0E949E0203
:10194000BC01CE01815B9F4F0E943803BE016F5FD7
:101950007F4FCE01815B9F4F0E947C09CE01815B4E
:101960009F4F0E948303CE0183599F4F0E948303A0
:10197000CE018D589F4F0E948303CE0189599F4FFE
:101980000E948303CE018F599F4F0E948303CE0193
:10199000855A9F4F0E948303CE018B5A9F4F0E940E
:1019A0008303CE0101960E948303CE018D5B9F4F7E
:1019B0000E948303CE01875B9F4F0E948303CE0169
:1019C000CD960E948303CE01C7960E948303CE0169
:1019D000C1960E948303CE018B960E948303CE01A1
:1019E00085960E948303CE014F960E948303CE0109
:1019F00049960E948303CE0143960E948303CE0141
:101A00000D960E948303CE0107960E9483039BEBF1
:101A1000E92E90E0F92E27EAC22E20E0D22E33E9FB
:101A2000A32E30E0B32E00E010E00E94B101409000
:101A30008B0250908C0260908D0270908E029B0100
:101A4000AC01241935094609570929013A0138EE34
:101A5000431633E053066104710450F160938B0226
:101A600070938C0280938D0290938E02F701849183
:101A7000F6019490F501849070E060E0882099F080
:101A800081110E94BA00E82DF0E0EE0FFF1FE4582C
:101A9000FF4FA591B4918C91982291E080E009F4D8
:101AA00090E0692F782FF1E06F278DE00E94E3002E
:101AB0000E94DE0860919102709192028AE00E9479
:101AC000420160918F027091900289E00E94420170
:101AD00080919602E0919702F0919802882379F024
:101AE0000190F081E02D309709F00995109296024F
:101AF0000115110509F499CF0E94000096CF80903E
:101B0000990290909A02E815F905F1F00480F581A8
:101B1000E02D309709F0099590929A0280929902EF
:101B20009092980280929702D401ED91FC913097A7
:101B300009F009950E94B10160939B0270939C0289
:101B400080939D0290939E02E0919702F0919802FB
:101B50000280F381E02D309759F20995C9CFEFE962
:101B6000F2E0138212828BE191E0918380838CE01A
:101B700084838FEF85838BE0868387E0878386E08D
:101B8000808785E0818784E08287138614861586A6
:101B90001686178681E00E94380866EF71E08CE7B0
:101BA00092E00E94720366EF71E086E792E00E9485
:101BB000720366EF71E080E792E00E947203EAE64A
:101BC000F2E08CEC9AE09183808380EC93E0938345
:101BD000828387ED91E095838483A4E6B2E08EEB67
:101BE0009AE011969C938E9385EA94E013969C93C9
:101BF0008E93129786ED91E015969C938E93149791
:101C0000AEE5B2E082EB9AE011969C938E938AEC5B
:101C100096E013969C938E93129785ED91E015961E
:101C20009C938E931497A8E5B2E08EE89AE0119603
:101C30009C938E9386E197E013969C938E931297D4
:101C400084ED91E015969C938E931497A2E5B2E0F3
:101C500086EA9AE011969C938E9383E397E013961D
:101C60009C938E93129783ED91E015969C938E939F
:101C70001497ACE4B2E08AE99AE011969C938E93B3
:101C800080E597E013969C938E93129782ED91E0F6
:101C900015969C938E931497A6E9B2E081E08C93FD
:101CA0001496FC93EE9313971296FC93EE93119770
:101CB00015961D921D921D921C921897089580E70B
:101CC00092E00E94830386E792E00E9483038CE700
:101CD00092E00C948303BB274A3031F4992322F419
:101CE000BDE2909581959F4F0C94770EBB27FB0129
:101CF0005527AA27880F991FAA1FA41710F0A41B05
:101D000083955051B9F7A05DAA3308F0A95DA1935E
:101D1000009779F7B111B1931192CB010C94900E09
:101D2000DC01FC01672F71917723E1F7329704C042
:101D30007C916D9370836291AE17BF07C8F30895CD
:101D40002F923F924F925F926F927F928F929F92CB
:101D5000AF92BF92CF92DF92EF92FF920F931F93B9
:101D6000CF93DF93CDB7DEB7CA1BDB0B0FB6F8946A
:101D7000DEBF0FBECDBF09942A88398848885F84AA
:101D80006E847D848C849B84AA84B984C884DF801B
:101D9000EE80FD800C811B81AA81B981CE0FD11DFF
:101DA0000FB6F894DEBF0FBECDBFED01089597FBCF
:101DB000072E16F4009407D077FD09D00E94130F68
:101DC00007FC05D03EF4909581959F4F089570953E
:101DD00061957F4F0895A1E21A2EAA1BBB1BFD013E
:101DE0000DC0AA1FBB1FEE1FFF1FA217B307E407FA
:101DF000F50720F0A21BB30BE40BF50B661F771F52
:101E0000881F991F1A9469F7609570958095909531
:101E10009B01AC01BD01CF010895EE0FFF1F05909E
:101E2000F491E02D0994AA1BBB1B51E107C0AA1F26
:101E3000BB1FA617B70710F0A61BB70B881F991F6B
:101E40005A95A9F780959095BC01CD0108950F93FF
:101E50001F93CF93DF938230910510F482E090E0DE
:101E6000E091B902F091BA0230E020E0B0E0A0E0E9
:101E7000309799F42115310509F44AC0281B390B14
:101E800024303105D8F58A819B816115710589F16E
:101E9000FB0193838283FE0111C040815181028145
:101EA000138148175907E0F04817590799F410971C
:101EB00061F012960C93129713961C933296CF01F1
:101EC000DF91CF911F910F9108950093B902109364
:101ED000BA02F4CF2115310551F04217530738F0FB
:101EE000A901DB019A01BD01DF01F801C1CFEF01BA
:101EF000F9CF9093BA028093B902CDCFFE01E20FE1
:101F0000F31F819391932250310939832883D7CFCE
:101F10002091B7023091B802232B41F42091130194
:101F2000309114013093B8022093B702209111012F
:101F3000309112012115310541F42DB73EB7409182
:101F4000150150911601241B350BE091B702F09159
:101F5000B802E217F307A0F42E1B3F0B281739072E
:101F600078F0AC014E5F5F4F2417350748F04E0FF5
:101F70005F1F5093B8024093B702819391939FCF14
:101F8000F0E0E0E09CCFCF93DF930097E9F0FC0115
:101F9000329713821282A091B902B091BA02ED0178
:101FA00030E020E01097A1F420813181820F931F4F
:101FB0002091B7023091B8022817390709F061C0A3
:101FC000F093B802E093B702DF91CF910895EA0150
:101FD000CE17DF07E8F54A815B819E014115510567
:101FE000B1F7E901FB83EA8349915991C40FD51FE9
:101FF000EC17FD0761F4808191810296840F951F93
:10200000E90199838883828193819B838A83F0E0AD
:10201000E0E012968D919C9113970097B9F52D9160
:102020003C911197CD010296820F931F2091B70228
:102030003091B8022817390739F6309751F51092C8
:10204000BA021092B902B093B802A093B702BCCF03
:10205000D383C28340815181840F951FC817D9074C
:1020600061F44E5F5F4F88819981480F591F5183FA
:1020700040838A819B81938382832115310509F0F6
:10208000B0CFF093BA02E093B9029ECFFD01DC011C
:10209000C0CF13821282D7CFB0E0A0E0E2E5F0E13A
:1020A0000C94A20E8C01009751F4CB010E94270FD3
:1020B0008C01C801CDB7DEB7E0E10C94BE0EFC0187
:1020C000E60FF71F9C0122503109E217F30708F4CD
:1020D0009DC0D901CD91DC911197C617D70798F013
:1020E000C530D10530F3CE0104978617970708F362
:1020F000C61BD70B2297C193D1936D937C93CF01CD
:102100000E94C30FD6CF5B01AC1ABD0A4C018C0EE6
:102110009D1EA091B902B091BA02512C412CF12C14
:10212000E12C109731F58091B7029091B802881593
:10213000990509F05CC04616570608F058C0809112
:10214000110190911201009741F48DB79EB7409113
:10215000150150911601841B950BE817F90708F03B
:1021600055C0F093B802E093B702F9017183608320
:10217000A0CF8D919C91119712966C901297139607
:102180007C901397A815B90559F56C0142E0C40E6F
:10219000D11CCA14DB0420F1AC014A195B09DA0135
:1021A0001296159780F06282738251834083D90121
:1021B0006D937C93E114F10471F0D7011396FC93B5
:1021C000EE93129776CF22968C0F9D1FF901918383
:1021D0008083F301EFCFF093BA02E093B90269CFA5
:1021E0004816590608F42C017D01D3019ACFCB0182
:1021F0000E94270F7C01009749F0AE01B8010E94B0
:102200000911C8010E94C30F870153CF10E000E0FD
:1022100050CFFB01DC0102C001900D9241505040B3
:10222000D8F70895FB01DC0101900D920020E1F741
:10223000089510E0C2E6D0E004C0FE010E940D0F38
:0C2240002196C336D107C9F7F894FFCFF0
:10224C0001FF03FF036400FF01FF01FF01CD01CD7E
:10225C00010000BB02800000000000880A8D00CF46
:10226C0001CE013E537461727420202020203E5315
:10227C006B6970002D2D43616C6962726174696FBA
:10228C006E2D2D2D0020537461727420202020207F
:10229C0020536B69700057686974650030004C6599
:1022AC0066742053656E736F723A00426C61636B97
:1022BC00004D6964646C652053656E736F723A00EF
:1022CC0052696768742053656E736F723A003E50A2
:1022DC006F776572202020203E43616C6962002D6F
:1022EC002D2D2D53657474696E67732D2D2D2D0056
:1022FC0020506F776572202020202043616C69622A
:10230C00003E2B3520202020202020203E457869BF
:10231C007400506F7765723A20002500202B352011
:10232C00202020202020202045786974007C005F2C
:10233C0020005F00202000436F6D70656C65746534
:10234C000063616C6962726174696F6E004C6566E2
:10235C0074004C6F737400526967687400466F7236
:10236C007761726400537461727400526F626F749F
:0E237C0000506174682066696E64657200002E
:107E0000112484B714BE81FFF0D085E080938100F7
:107E100082E08093C00088E18093C10086E0809377
:107E2000C20080E18093C4008EE0C9D0259A86E02C
:107E300020E33CEF91E0309385002093840096BBD3
:107E4000B09BFECF1D9AA8958150A9F7CC24DD24C4
:107E500088248394B5E0AB2EA1E19A2EF3E0BF2EE7
:107E6000A2D0813461F49FD0082FAFD0023811F036
:107E7000013811F484E001C083E08DD089C08234E0
:107E800011F484E103C0853419F485E0A6D080C0E4
:107E9000853579F488D0E82EFF2485D0082F10E0AE
:107EA000102F00270E291F29000F111F8ED06801E7
:107EB0006FC0863521F484E090D080E0DECF843638
:107EC00009F040C070D06FD0082F6DD080E0C81688
:107ED00080E7D80618F4F601B7BEE895C0E0D1E017
:107EE00062D089930C17E1F7F0E0CF16F0E7DF06D8
:107EF00018F0F601B7BEE89568D007B600FCFDCFD4
:107F0000A601A0E0B1E02C9130E011968C91119780
:107F100090E0982F8827822B932B1296FA010C0160
:107F200087BEE89511244E5F5F4FF1E0A038BF0790
:107F300051F7F601A7BEE89507B600FCFDCF97BE46
:107F4000E89526C08437B1F42ED02DD0F82E2BD052
:107F50003CD0F601EF2C8F010F5F1F4F84911BD097
:107F6000EA94F801C1F70894C11CD11CFA94CF0C13
:107F7000D11C0EC0853739F428D08EE10CD085E9AC
:107F80000AD08FE07ACF813511F488E018D01DD067
:107F900080E101D065CF982F8091C00085FFFCCF94
:107FA0009093C60008958091C00087FFFCCF809118
:107FB000C00084FD01C0A8958091C6000895E0E648
:107FC000F0E098E1908380830895EDDF803219F02E
:107FD00088E0F5DFFFCF84E1DECF1F93182FE3DFCA
:107FE0001150E9F7F2DF1F91089580E0E8DFEE27F6
:047FF000FF270994CA
:027FFE00040479
:0400000300007E007B
:00000001FF
